:100000000C9440000C945D000C945D000C945D0019
:100010000C945D000C945D000C945D000C945D00EC
:100020000C945D000C945D000C945D000C945D00DC
:100030000C945D000C945D000C945D000C945D00CC
:100040000C945D000C945D000C945D000C945D00BC
:100050000C945D000C945D000C945D000C945D00AC
:100060000C945D000C945D00800000010101000013
:1000700031323341343536423738394345304644DE
:1000800011241FBECFEFD8E0DEBFCDBF11E0A0E04E
:10009000B1E0ECE3F0E102C005900D92A432B107AB
:1000A000D9F721E0A4E2B1E001C01D92AC37B2075C
:1000B000E1F70E9465050C941C080C94000094B1B3
:1000C000926094B928E016C080FF04C095B1926098
:1000D00095B903C095B19D7F95B9000095B1916028
:1000E00095B900C000C095B19E7F95B900C000C011
:1000F000869521502111E8CF84B18D7F84B9089570
:1001000080E090E038E016C096958795199B03C073
:1001100040E850E002C040E050E0842B952B25B130
:10012000216025B900C000C025B12E7F25B900C0CF
:1001300000C031503111E8CF089595B1946095B960
:1001400095E09A95F1F7000081600E945F000E949F
:10015000800095B19B7F95B995E09A95F1F70000E5
:100160000895CF93C62F95B1946095B995E09A956F
:10017000F1F700008E7F0E945F008C2F0E945F00CD
:1001800085B18B7F85B985E08A95F1F70000CF9125
:100190000895CF9360E08EE80E94B10060E080E9AE
:1001A0000E94B10085B1846085B985E08A95F1F738
:1001B00000008EEB0E945F00C0E009C0EC2FF0E071
:1001C000E859FF4F859194910E945F00CF5FC8303E
:1001D000A8F385B18B7F85B985E08A95F1F700009A
:1001E00060E88EE80E94B100CF910895CF930E94FD
:1001F000C90060E08EE80E94B10085B1846085B9D5
:1002000085E08A95F1F700008EEF0E945F00C0E064
:1002100004C080E00E945F00CF5FCC31D0F389EC56
:100220000E945F0089EF0E945F0081E30E945F00EF
:1002300085B18B7F85B985E08A95F1F7000060E88C
:100240008EE80E94B100CF910895CF9385B18B7F46
:1002500085B984B1846084B985B18E7F85B984B154
:10026000816084B985B18D7F85B984B18D7F84B972
:100270008FE80E949D00882311F0803821F5C0E8A6
:10028000C80F6C2F8EE80E94B1008FE80E949D007D
:10029000C8131BC0811104C060E88EE80E94B10041
:1002A00089EF0E949D00893C51F48BEF0E949D00D4
:1002B000893F29F48DEF0E949D00813341F00E9417
:1002C000F60081E005C080E003C080E001C081E06D
:1002D000CF910895CF92DF92EF92FF921F93CF9329
:1002E000DF93CDB7DEB728970FB6F894DEBF0FBE09
:1002F000CDBF6C0185B1846085B985E08A95F1F741
:1003000000008FEB0E945F0010E00CC0E12EF12C8A
:100310000E948000E1E0F0E0EC0FFD1FEE0DFF1DFC
:1003200080831F5F183090F385B18B7F85B9E5E03E
:10033000EA95F1F70000298122230CF468C0822F8E
:10034000807790E095958795959587959595879574
:1003500095958795880F982F990F990F890F2F7072
:10036000820FF60187832A81822F807790E095950E
:100370008795959587959595879595958795858387
:100380002F7026832B81822F807390E0959587951F
:1003900095958795959587959595879583832F70E6
:1003A00024832C81822F807390E095958795959575
:1003B00087959595879595958795880F982F990F8F
:1003C000990F890F2F70820F82832D81822F807168
:1003D00090E09595879595958795959587959595B1
:1003E0008795880F982F990F990F890F2F70820F7B
:1003F00081838F81982F92959F70990F292F220FBB
:10040000220F920F8F70890F808381E001C080E0FE
:1004100028960FB6F894DEBF0FBECDBFDF91CF9107
:100420001F91FF90EF90DF90CF9008951F93CF938F
:10043000DF93CDB7DEB728970FB6F894DEBF0FBEB7
:10044000CDBFFC0187819DEC899F212D112426952C
:1004500026952695422F440F342F330F330F340F38
:10046000831B30E1239F800D112489834581868180
:10047000899F212D1124269526952695220F322F0E
:10048000330F330F230F821B20E1429F800D112475
:100490008A8343818481899F212D11242695269565
:1004A0002695220F322F330F330F230F821B30E19B
:1004B000439F800D11248B838281899F212D1124DC
:1004C000269526952695422F440F342F330F330F50
:1004D000340F831B30E1239F800D11248C83818195
:1004E000899F212D1124269526952695422F440F6C
:1004F000342F330F330F340F831B30E1239F800DD4
:1005000011248D838081899F912D11249695969534
:100510009695392F330F232F220F220F230F821B83
:1005200020E1929F800D11248F83188660E08EE871
:100530000E94B10085B1846085B935E03A95F1F744
:1005400000008EEB0E945F0010E00AC0E1E0F0E0E6
:10055000EC0FFD1FE10FF11D80810E945F001F5F06
:100560001830A0F385B18B7F85B985E08A95F1F7C6
:10057000000060E88EE80E94B10028960FB6F8945B
:10058000DEBF0FBECDBFDF91CF911F9108958FEFDA
:100590008093B800089584EA8093BC008091BC00E9
:1005A0008823E4F7089584E98093BC00089580933C
:1005B000BB0084E88093BC008091BC008823E4F7F2
:1005C0000895CF93DF93C82FD62F0E94CB028D2F93
:1005D0000E94D7028C2F0E94D7020E94D302DF9183
:1005E000CF9108958AB161E086278AB98AB152E035
:1005F00085278AB98AB144E084278AB98AB138E06C
:1006000083278AB98AB120E182278AB98AB190E228
:1006100089278AB97AB180E478277AB97AB1705893
:100620007AB97BB167276BB96BB156275BB95BB100
:1006300045274BB94BB134273BB93BB123272BB9E5
:100640002BB192279BB99BB189278BB98BB180586D
:100650008BB908958AB18E7F8AB98AB18D7F8AB9A4
:100660008AB18B7F8AB98AB1877F8AB98AB1806162
:100670008AB98AB180628AB98AB180648AB98AB13A
:1006800080688AB98BB181608BB98BB182608BB97C
:100690008BB184608BB98BB188608BB98BB18F7E45
:1006A0008BB98BB18F7D8BB98BB18F7B8BB98BB1B4
:1006B0008F778BB90895CF93DF9300D000D01F922E
:1006C000CDB7DEB719821B821A8280EF8D8389B184
:1006D00081709D81892B8D8389B19D818270892B49
:1006E0008D8389B19D818470892B8D8389B19D8192
:1006F0008870892B8D838D8180958A838A81882358
:1007000009F456C00E94F2028FE08C8389B19C816B
:100710008071892B8C8389B19C818072892B8C8319
:1007200089B19C818074892B8C8389B19C8180786C
:10073000892B8C838C8180958B830E94F2028A8125
:1007400080FF02C01A8211C08A8181FF03C081E04C
:100750008A830BC08A8182FF03C082E08A8305C03E
:100760008A8183FF02C083E08A838B8184FF02C079
:100770001B8211C08B8185FF03C081E08B830BC07E
:100780008B8186FF03C082E08B8305C08B81882329
:1007900014F483E08B83EA81F0E08B81EE0FFF1F7E
:1007A000EE0FFF1FE80FF11DE059FF4FE491E983C1
:1007B00089810F900F900F900F900F90DF91CF9144
:1007C0000895CF93C82FC295C07F80912401846083
:1007D000809324016EE40E94E10280E18A95F1F7A2
:1007E00000C0809124016EE48C2B0E94E102809174
:1007F00024018B7F809324016EE40E94E10280E15A
:100800008A95F1F700C0CF910895CF93DF93C82F59
:10081000D82FD295DF70611109C0809124018E7F9D
:10082000809324016EE40E94E10208C080912401BB
:100830008160809324016EE40E94E1028D2F0E946A
:10084000E1038C2F0E94E103DF91CF910895CF93B4
:10085000DF93C82FD82FD295DF708091240181605B
:10086000809324016EE40E94E1028D2F0E94E10337
:100870008C2F0E94E103DF91CF9108951092240103
:100880000E94C70285EA9EE00197F1F700C00000D0
:1008900083E00E94E10387EE93E00197F1F700C047
:1008A000000083E00E94E10391E29A95F1F70000D5
:1008B00083E00E94E10389EF90E00197F1F700C027
:1008C000000082E00E94E10389EF90E00197F1F7D8
:1008D00000C0000060E088E20E94050489EF90E01B
:1008E0000197F1F700C0000060E08CE00E94050471
:1008F00089EF90E00197F1F700C0000060E086E02A
:100900000E94050489EF90E00197F1F700C0000014
:10091000809124018860809324016EE40E94E102AA
:10092000809124018D7F809324016EE40E94E10276
:10093000089560E081E00E94050486E791E0019758
:10094000F1F700C00000089590E4699F800D112424
:1009500060E080680E94050408950F931F93CF9371
:100960008C01C0E003C00E942704CF5FF801EC0FA8
:10097000F11D80818111F7CFCF911F910F910895C3
:100980002FEF87EA91E6215080409040E1F700C0C8
:10099000000084B1886084B981E0809325010895C6
:1009A0008091280108958091260108958091250164
:1009B000811102C00E94C00484B1886084B985B1ED
:1009C000877F85B92FEF89EF90E0215080409040DC
:1009D000E1F700C0000084B1877F84B92AEA2A9534
:1009E000F1F700C01B9967C087E491E00197F1F728
:1009F00000C000001B9B61C087E491E00197F1F704
:100A000000C000001B995BC070E036C08F5F89306A
:100A100040F425E32A95F1F7000001C080E01B9B1C
:100A2000F5CF1B9B4EC085ED8A95F1F700001B9B0F
:100A30000CC047E050E0491B510921E030E002C002
:100A4000220F331F4A95E2F7622B80E007C08F5FC9
:100A5000893030F425E32A95F1F700001B99F7CF90
:100A60009F5F02C060E090E09830C0F2E72FF0E0B6
:100A7000EA5DFE4F60837F5F7530A0F38FEE90E0FC
:100A80000197F1F700C00000E6E2F1E030818181DA
:100A900022819381830F820F890F9481891313C060
:100AA0009FEF27EA81E6915020408040E1F700C0A7
:100AB000000081E0089580E0089580E0089580E0DE
:100AC000089580E008958FEF089584B1806184B91E
:100AD00085B18F7E85B91092380110923C01109239
:100AE0002B0110927A0110922D0110923B0110926D
:100AF0002F0110923001109231010E942A030E94AE
:100B00003E040E9499040E942501882321F081E07F
:100B10008093320102C01092320180913201813003
:100B2000E1F780913C01813009F4AEC00E94D60407
:100B300080932C0182E791E00E946A01882309F4E6
:100B40006AC00E94990428E02A95F1F7000060E04D
:100B500080E00E94A404C2E7D1E08B814AE060E417
:100B600071E090E00E94E70780E491E00E94AD040C
:100B70008C814AE060E471E090E00E94E70780E445
:100B800091E00E94AD0480E091E00E94AD048D816F
:100B90004AE060E471E090E00E94E70780E491E0C1
:100BA0000E94AD048E814AE060E471E090E00E9412
:100BB000E70780E491E00E94AD0482E091E00E94AA
:100BC000AD048A814AE060E471E090E00E94E707AA
:100BD00080E491E00E94AD0486E091E00E94AD04C3
:100BE00089814AE060E471E090E00E94E70780E4D8
:100BF00091E00E94AD0486E091E00E94AD048881FE
:100C00004AE060E471E090E00E94E70780E491E050
:100C10000E94AD0415C00E94C900E2E7F1E08AE03D
:100C2000828381E0818395E19083838383E0848361
:100C300085E0858389E086831782CF010E941602B2
:100C400061E080E00E94A4040E94D0044AE060E4D5
:100C500071E090E00E94E70780E491E00E94AD041B
:100C600088E091E00E94AD040E94D3044AE060E471
:100C700071E090E00E94E70780E491E00E94AD04FB
:100C80008CE091E00E94AD040E945B0380933801E8
:100C900080913801813469F480913C01823049F0BF
:100CA0000E94990481E080933C0180932B01809302
:100CB0007A0180913801823439F40E94990482E0EB
:100CC00080933C0110922B0180913801833441F4D0
:100CD0000E94990410923C0110922B011092310154
:100CE00080913C01811108C061E08AE00E94A40467
:100CF00080E191E00E94AD0480913C01813041F49B
:100D000061E080E00E94A40484E191E00E94AD04CF
:100D100080913C01823009F09BC0E2E7F1E08381E1
:100D200080937B01648160933701458140933D014D
:100D3000268120932E0190E0C09690933A018093F3
:100D4000390170E0605D7F4FFB0170933601609365
:100D5000350150E0405D5F4FBA0150933F01409331
:100D60003E0130E0205D3F4FA901309334012093D4
:100D7000330120912D0130E082179307B1F4809167
:100D80003B0190E0E817F90781F480912F0190E092
:100D90006817790751F48091300190E0481759079E
:100DA00021F481E0809331012CC061E08CE00E944D
:100DB000A40480E091E00E94AD0461E08AE00E941A
:100DC000A40480912D010E94270461E08BE00E9421
:100DD000A40480913B010E94270461E08DE00E9401
:100DE000A40480912F010E94270461E08EE00E94FC
:100DF000A404809130010E94270461E08EE00E94EB
:100E0000A40480913101813001F561E08AE00E9403
:100E1000A4048EE191E00E94AD0485B1806185B9A2
:100E20008FEF93ED20E3815090402040E1F700C028
:100E3000000085B18F7E85B98FEF93ED20E381505F
:100E400090402040E1F700C0000085B18F7E85B959
:100E500080912B01813009F060CE8091380181347E
:100E600009F45BCE80913801823409F456CE80912A
:100E70003801833409F451CE80913801843409F467
:100E80004CCE80913801853409F447CE80913801E9
:100E9000863409F442CE60E08AE00E94A40480E037
:100EA00091E00E94AD0460E088E00E94A40480917B
:100EB0002D010E94270460E089E00E94A404809133
:100EC0003B010E94270460E08BE00E94A404809113
:100ED0002F010E94270460E08CE00E94A40480910E
:100EE00030010E94270480917A018130C1F4809101
:100EF00038018823A1F08091380180932D018FEF74
:100F000099E628E1815090402040E1F700C00000C0
:100F10001092380180917A018F5F80937A018091DD
:100F20007A018230E1F4809138018823C1F0809108
:100F30002D018823A1F08091380180933B018FEF30
:100F400099E628E1815090402040E1F700C0000080
:100F50001092380180917A018F5F80937A0180919D
:100F60007A018330E1F4809138018823C1F08091C7
:100F70003B018823A1F08091380180932F018FEFEE
:100F800099E628E1815090402040E1F700C0000040
:100F90001092380180917A018F5F80937A0180915D
:100FA0007A01843009F0B9CD80913801882309F4A1
:100FB000B4CD80912F01882309F4AFCD8091380101
:100FC000809330011092380110927A01A6CDBB2790
:100FD0004A3031F4992322F4BDE2909581959F4FD8
:100FE0000C94F307BB27FB015527AA27880F991FED
:100FF000AA1FA41710F0A41B83955051B9F7A05D48
:10100000AA3308F0A95DA193009779F7B111B193C4
:101010001192CB010C940C08DC01FC01672F71913B
:101020007723E1F7329704C07C916D9370836291CE
:0C103000AE17BF07C8F30895F894FFCF77
:10103C003A00202020002F002043200020252000F3
:10104C00594F4B004B5552554C55594F5200555911
:04105C00414E000001
:00000001FF
