:100000000C9438000C944A000C944A000C944A005A
:100010000C944A000C944A000C944A000C944A0038
:100020000C944A000C944A000C944A000C944A0028
:100030000C944A000C944A000C944A000C944A0018
:100040000C944A000C944A000C944A000C944A0008
:100050000C944A000C944A000C944A000C944A00F8
:100060000C944A000C944A00800000010101000039
:1000700011241FBECFEFD8E0DEBFCDBF21E0A0E04E
:10008000B1E001C01D92A730B207E1F70E9403035F
:100090000C941C030C9400009AB190619AB928E06A
:1000A00016C080FF04C09BB190619BB903C09BB197
:1000B0009F7E9BB900009BB198609BB900C000C0B7
:1000C0009BB1977F9BB900C000C08695215021113C
:1000D000E8CF8AB18F7E8AB9089580E090E038E059
:1000E00016C0969587954C9B03C040E850E002C02F
:1000F00040E050E0842B952B2BB128602BB900C039
:1001000000C02BB1277F2BB900C000C03150311186
:10011000E8CF08959BB190629BB995E09A95F1F76D
:10012000000081600E944C000E946D009BB19F7D89
:100130009BB995E09A95F1F700000895CF93C62FEB
:100140009BB190629BB995E09A95F1F700008E7F84
:100150000E944C008C2F0E944C008BB18F7D8BB97C
:1001600085E08A95F1F70000CF910895CF9360E084
:100170008EE80E949E0060E080E90E949E008BB1A4
:1001800080628BB985E08A95F1F700008EEB0E94C2
:100190004C00C0E009C0EC2FF0E0E859FF4F85911A
:1001A00094910E944C00CF5FC830A8F38BB18F7D33
:1001B0008BB985E08A95F1F7000060E88EE80E942F
:1001C0009E00CF910895CF930E94B60060E08EE824
:1001D0000E949E008BB180628BB985E08A95F1F711
:1001E00000008EEF0E944C00C0E004C080E00E943E
:1001F0004C00CF5FCC31D0F389EC0E944C0089EFEA
:100200000E944C0081E30E944C008BB18F7D8BB922
:1002100085E08A95F1F7000060E88EE80E949E0074
:10022000CF910895CF938BB18F7D8BB98AB18062C6
:100230008AB98BB1877F8BB98AB188608AB98BB153
:100240008F7E8BB98AB18F7E8AB98FE80E948A002F
:10025000882311F0803821F5C0E8C80F6C2F8EE894
:100260000E949E008FE80E948A00C8131BC0811163
:1002700004C060E88EE80E949E0089EF0E948A0018
:10028000893C51F48BEF0E948A00893F29F48DEF5D
:100290000E948A00813341F00E94E30081E005C0A2
:1002A00080E003C080E001C081E0CF910895CF924B
:1002B000DF92EF92FF921F93CF93DF93CDB7DEB71C
:1002C00028970FB6F894DEBF0FBECDBF6C018BB17F
:1002D00080628BB985E08A95F1F700008FEB0E9470
:1002E0004C0010E00CC0E12EF12C0E946D00E1E00A
:1002F000F0E0EC0FFD1FEE0DFF1D80831F5F183037
:1003000090F38BB18F7D8BB9E5E0EA95F1F70000B2
:10031000298122230CF472C0822F807790E095957A
:100320008795959587959595879595958795880F48
:10033000982F990F990F890F2F70820FF6018583DF
:100340002A81822F807790E095958795959587955E
:100350009595879595958795880F982F990F990F63
:10036000890F2F70820F84832B81822F807390E0FE
:100370009595879595958795959587959595879565
:10038000880F982F990F990F890F2F70820F8383F1
:100390002C81822F807390E0959587959595879510
:1003A0009595879595958795880F982F990F990F13
:1003B000890F2F70820F82832D81822F807190E0B0
:1003C0009595879595958795959587959595879515
:1003D000880F982F990F990F890F2F70820F8183A3
:1003E0008F81982F92959F70990F292F220F220F9E
:1003F000920F8F70890F808381E001C080E0289682
:100400000FB6F894DEBF0FBECDBFDF91CF911F9125
:10041000FF90EF90DF90CF9008958FEF8093B8001A
:10042000089584EA8093BC008091BC008823E4F79F
:10043000089584E98093BC0008958093BB0084E80C
:100440008093BC008091BC008823E4F70895CF938B
:10045000DF93C82FD62F0E9411028D2F0E941D02FC
:100460008C2F0E941D020E941902DF91CF910895E6
:10047000CF93C82FC295C07F809100018460809384
:1004800000016EE40E94270280E18A95F1F700C026
:10049000809100016EE48C2B0E9427028091000164
:1004A0008B7F809300016EE40E94270280E18A9591
:1004B000F1F700C0CF910895CF93DF93C82FD82FC5
:1004C000D295DF70611109C0809100018E7F809309
:1004D00000016EE40E94270208C080910001816043
:1004E000809300016EE40E9427028D2F0E94380243
:1004F0008C2F0E943802DF91CF910895CF93DF9324
:10050000C82FD82FD295DF70809100018160809331
:1005100000016EE40E9427028D2F0E9438028C2F6A
:100520000E943802DF91CF910895109200010E943D
:100530000D0285EA9EE00197F1F700C0000083E01C
:100540000E94380287EE93E00197F1F700C00000A7
:1005500083E00E94380291E29A95F1F7000083E06F
:100560000E94380289EF90E00197F1F700C0000087
:1005700082E00E94380289EF90E00197F1F700C015
:10058000000060E088E20E945C0289EF90E0019741
:10059000F1F700C0000060E08CE00E945C0289EF8F
:1005A00090E00197F1F700C0000060E086E00E9453
:1005B0005C0289EF90E00197F1F700C000008091A4
:1005C00000018860809300016EE40E942702809100
:1005D00000018D7F809300016EE40E942702089540
:1005E0000F931F93CF938C01C0E003C00E947E0243
:1005F000CF5FF801EC0FF11D80818111F7CFCF9112
:100600001F910F9108950E9495020E94120181E0AE
:1006100091E00E9457018823D1F3E1E0F1E083816A
:1006200090E0CA962481820F911DCA962581820F7F
:0C063000911D0E94F002EBCFF894FFCF68
:00000001FF
